:100000000C9480020C94A1020C94A1020C94A10205
:100010000C94A1020C94A1020C94A1020C94A102D4
:100020000C94A1020C94A1020C94A1020C94A102C4
:100030000C94A1020C94A1020C94A1020C94A102B4
:100040000C94A1020C94A1020C94A1020C94A102A4
:100050000C94A1020C94A1020C94A1020C94A10294
:100060000C94A1020C94A1020C94A1020C94A10284
:100070000C94A1020C94A1020C94A1020C94A10274
:100080000C94A1020C94A1020C94A1020C94A10264
:100090000C94A1020C94A1020C94A1020C94A10254
:1000A0000C94A1020C94A1020C94A1020C94A10244
:1000B0000C94A1020C94A1020C94A1020C94A10234
:1000C0000C94A1020C94A1020C94A1020C94A10224
:1000D0000C94A1020C94A1020C94A1020C94A10214
:1000E0000C94A1020C94A1020C94A1020C94A10204
:1000F0000C94A1020C94A1020C94A1020C94A102F4
:100100000C94A1020C94A1020C94A1020C94A102E3
:100110000C94A1020C94A1020C94A1020C94A102D3
:100120000C94A1020C94A1020C94A1020C94A102C3
:100130000C94A1020C94A1020C94A1020C94A102B3
:100140000C94A1020C94A1020C94A1020C94A102A3
:100150000C94A1020C94A1020C94A1020C94A10293
:100160000C94A1020C94A1020C94A1020C94A10283
:100170000C94A1020C94A1020C94A1020C94A10273
:100180000C94A1020C94A1020C94A1020C94A10263
:100190000C94A1020C94A1020C94A1020C94A10253
:1001A0000C94A1020C94A1020C94A1020C94A10243
:1001B0000C94A1020C94A1020C94A1020C94A10233
:1001C0000C94A1020C94A1020C94A1020C94A10223
:1001D0000C94A1020C94A1020C94A1020C94A10213
:1001E0000C94A1020C94A1020C94A1020C94A10203
:1001F0000C94A1020C94A1020C94A102620E4B0E6D
:10020000170E170E540D540D540D540DC80AC80A7C
:10021000C80AC80A140A140A140A140A6A0E6A0ED2
:100220006A0E6A0E7D097D097D097D09A80CA80C5E
:10023000A80CA80CE70BE70BE70BE70B290F290F1E
:10024000290F290F880B880B880B880BFA0EFA0EE2
:10025000FA0EFA0ED50ED50ED50ED50EE908E90820
:10026000E908E908E908E908E908E908E908E90806
:10027000E908E908E908E908E908E9084808480838
:1002800048084808480848084808480848084808EE
:100290004808480848084808480848089411941134
:1002A0009411941194119411941194119411941126
:1002B0009411941194119411941194115611561192
:1002C00056115611561156115611561156115611F6
:1002D0005611561156115611561156118B138B1378
:1002E0008B138B138B138B138B138B138B138B131E
:1002F0008B138B138B138B138B138B1315111511FE
:10030000AD12AD125E125E129D0F9D0F510F510F77
:10031000611461145E125E126114611425132513B9
:100320005F105F103C103C10AA13AA132E12680E27
:100330001A08C207F606F606F606F60698069806A6
:100340003C073C07980698063C073C079806980629
:100350003C073C07980698063C073C07F805F8055B
:10036000F805F805F805F805F805F805430643060D
:100370004306430643064306430643061B061B0685
:100380001B061B061B061B061B061B061B061B0665
:100390001B061B061B061B061B061B06990599055B
:1003A000990599059905990599059905990599055D
:1003B000990599059905990599059905810581057D
:1003C00081058105810581058105810581058105FD
:1003D0008105810581058105810581055405540547
:1003E000540554051605160516051605E704E70419
:1003F000AD04AD044804480451035103ED166616DC
:100400003C16E115680EA0172E171518680E680E19
:100410008415680E44154415DF14DF140C94880B02
:100420000C9461140C9425130C943C070C949411B7
:100430000C94C80A0C9444150C945E120C94DF14AE
:100440000C942E170C9498060C945F100C94540D79
:100450000C941A080C942E120C94AD120C94AD044A
:100460000C94E1150C9443060C949D0F0C945405C8
:100470000C94D50E0C9484150C94C2070C94620E47
:100480000C9448040C9456110C94F8050C94A01785
:100490000C9416050C94140A0C9415110C94ED167A
:1004A0000C944B0E0C94E9080C94F6060C94E7049B
:1004B0000C9499050C943C160C94170E0C94510353
:1004C0000C9448080C947D090C94AA130C943C10CD
:1004D0000C948B130C946A0E0C94510F0C946616AA
:1004E0000C94E70B0C94FA0E0C941B060C94290F39
:1004F0000C9481050C9415180C94A80C0C94680E9F
:1005000011241FBECFEFCDBFDFE9DEBF00E00CBF7F
:1005100023E9A0E0B0E201C01D92A831B207E1F7E3
:1005200010E2A0E0B0E2ECEBF0E500E00BBF02C0AF
:1005300007900D92A030B107D9F70E94FD270C94C7
:100540005C280C9400006BBFFA01DC0102C007902C
:100550000D9221503040D8F7089580E090E2EAE013
:10056000F0E2DF019C011D9221503040E1F7109232
:100570000E5010920D5084E080930F508091002017
:1005800090910120809310509093115008952F92D4
:100590003F924F925F926F927F928F929F92AF9213
:1005A000BF92CF92DF92EF92FF920F931F93CF9360
:1005B000DF93CDB7DEB7C859D109CDBFDEBF80917B
:1005C000062090910720A0910820B0910920019663
:1005D000A11DB11D8093062090930720A0930820B1
:1005E000B0930920C0901493D0901593E090169387
:1005F000F090179346015701B701A6014F5F5F4F77
:100600006F4F7F4F6A017B01409314935093159372
:100610006093169370931793109212501092135088
:1006200089E480930C4084E280930B4082E98093BC
:100630000A402091105030911150C956DF4F288345
:100640003983C759D040F901EE0FFF1F8F01065FB4
:100650001F4D3801D8018D919C91D901A35FBF4BEB
:10066000892BA9F45C90C9010196FC01E35FFF4B63
:1006700040804C92508201E010E0F301008311832E
:10068000880F991FFC01E65FFF4D008311839C9149
:10069000492E512CF2018827E250FF4F8F4F0C94C6
:1006A0004F2811968C911197682F6F70683010F059
:1006B0000C94680E91709DAB1EAAEDA9FEA9E2955F
:1006C000F295F07FFE27E07FFE2782958F70E82B62
:1006D000EC5EFF4A808190E080931250909313501B
:1006E00041E050E002C0440F551F6A95E2F78423B1
:1006F0009523892B49F189010E5F1F4FB501A40194
:100700004E5F5F4F6F4F7F4F4093149350931593FD
:10071000609316937093179313969C91F801E35F7F
:10072000FF4B8081843910F00C94E01C823910F466
:10073000803920F09F7011F40C94E91CC956DF4FEA
:1007400008831983C759D040C956DF4F08811981E2
:10075000C759D0400E5F1F4F009310501093115097
:10076000E2E092E080910C40282F207E203441F07E
:1007700020910F502F71382F307E232B20930F5054
:100780008C71883051F020910C40322F3C712091B7
:100790000F50237E232B20930F50923081F0209115
:1007A0000E5090FB27F920930E50892F8695982F95
:1007B000937080910F508C7F892B80930F50809184
:1007C0000B40982F9077903241F090910E509F7887
:1007D000282F2077922B90930E508E70843051F0FA
:1007E00080910B40982F9E7080910E50817F892BB5
:1007F00080930E50E230A1F09E2F9295990F990FA1
:10080000907C80910D508F73892B80930D50E2FB6B
:10081000882780F9E0910E50EE7FE82BE0930E5090
:1008200080910A40982F9873903141F090910D502B
:10083000977C282F2873922B90930D5087708230CD
:1008400011F40C94941880910A40982F977080911D
:100850000D50887F892B80930D5061E070E080E01F
:1008600090E0C856DF4FCDBFDEBFDF91CF911F9123
:100870000F91FF90EF90DF90CF90BF90AF909F903F
:100880008F907F906F905F904F903F902F90089542
:1008900011968C911197682F6F70683010F00C943E
:1008A000680E91709BAB1CAAEBA9FCA9E295F2958E
:1008B000F07FFE27E07FFE2782958F70E82BEC5EAD
:1008C000FF4A808190E0809312509093135041E052
:1008D00050E002C0440F551F6A95E2F78423952328
:1008E000892B09F031CF89010E5F1F4FB501A4019B
:1008F0004E5F5F4F6F4F7F4F40931493509315930C
:10090000609316937093179313969C91F801E35F8D
:10091000FF4B8081843910F00C94661E823918F4E4
:10092000803908F40BCF9F7009F008CFB9016C5FD4
:100930007F4FC956DF4F68837983C759D04073E032
:10094000870E911CA11CB11C809214939092159358
:10095000A0921693B0921793F7CE11964C91917086
:1009600099AB1AAAE9A9FAA9E295F295F07FFE27B8
:10097000E07FFE27842F82958F70E82BEC5EFF4A84
:10098000808190E08093125090931350477061E003
:1009900070E0FB0102C0EE0FFF1F4A95E2F78E23C5
:1009A0009F2341E0892B09F440E0440F440F440F9A
:1009B00080910A40877C482B40930A402E5F3F4F2E
:1009C0002093105030931150E2E092E0CBCE11967C
:1009D0008C91482F4F70483010F00C94680E409165
:1009E0000D5048739170483011F40C947A1C9FABF1
:1009F00018AEEFA9F8ADE295F295F07FFE27E07F03
:100A0000FE27982F92959F70E92BEC5EFF4A877026
:100A100041E050E0DA0102C0AA0FBB1F8A95E2F75D
:100A2000CD018095908189238083C8CF11968C91C8
:100A3000482F4770423011F40C94E72041110C9478
:100A4000141D40910F50407E09F07ECE9370A0E2BD
:100A50009A9FA0011124869586958695FA01E82B28
:100A6000CF0180931250909313508134910514F468
:100A70000C942F243A95880F991F6C01C20ED31E37
:100A8000C956DF4FC882D982C759D04002E0800ED4
:100A9000911CA11CB11C8092149390921593A0926A
:100AA0001693B092179350CE11964C91842F877065
:100AB00011F00C94581C80910F50807E803209F008
:100AC00043CE892F837070E2879FC0011124469521
:100AD00046954695842B8093125090931350813401
:100AE000910514F40C94C81F3A95880F991FDC01E6
:100AF000A20FB31FC956DF4FA883B983C759D0408F
:100B000023CE11968C91E82FE295EF70F0E0EC5E29
:100B1000FF4A60E1969FA00111248F70842B808B87
:100B20002E5F3F4F2093105030931150E2E092E03F
:100B300019CE9F70892F90E0982F882711964C919D
:100B4000842B8093125090931350D9011296E09108
:100B50007150F0917250EC5EFF4AA083C0907150CA
:100B6000D09072500D2C000CEE08FF0801E0C01A66
:100B7000D108E108F1084D2D50E0D0927250C0929A
:100B80007150542F44274C29FA01EC5EFF4AB08380
:100B90004091715050917250052E000C660B770BEE
:100BA000415051096109710950937250409371503D
:100BB00093FD02C00C94581A2E5F3F4018E0912715
:100BC000880F991F280F391F209310503093115010
:100BD00023E0820E911CA11CB11C80921493909270
:100BE0001593A0921693B0921793E2E092E0BACDDB
:100BF00011968C91E92FE770F0E0F595E795E29575
:100C0000F295F07FFE27E07FFE27482F4F70E42B00
:100C100040A191709DA71EA6EDA5FEA5E295F295B7
:100C2000F07FFE27E07FFE2782958F70E82BEC5E39
:100C3000FF4A4083C3CE11968C919F3C11F40C94D3
:100C40009F1C492F4F7090E0942B809312509093EB
:100C50001350E2E08E0E911CA11CB11C80921493E3
:100C600090921593A0921693B092179393FD02C0A1
:100C70000C94501C2E5F3F40F8E09F27880F991F6F
:100C8000280F391F9DCE11968C91B92FB170BFA737
:100C900018AAEFA5F8A9E295F295F07FFE27E07F6C
:100CA000FE27282F22952F70E22BEC5EFF4A208131
:100CB0009770E92FF0E0F595E795E295F295F07FD2
:100CC000FE27E07FFE278F70E82B20A38091105035
:100CD0009091115002968093105090931150209152
:100CE0000B40322F331F3327331F80910C4083700A
:100CF000880F832B8295880F807E982F95959595E8
:100D0000959595959595E0910A408E2F82958695BB
:100D100086958370E22FE170EE0FEE0FE82BE295DF
:100D2000EE0FE07EE595E595E595E595E5951ACD1F
:100D300011968C91482F4F70483010F00C94621A25
:100D4000192F117066961FAF669767961FAE67974B
:100D500067964EAD5FAD679742955295507F542789
:100D6000407F5427682F62956F70462B4093125036
:100D7000509313509C70692F70E0660F771F877037
:100D8000DB01A82BCD018062E0913250F09133500D
:100D9000E80FF91F4F010F2E000CAA08BB08240111
:100DA0003501BFEF4B1ABFE15B0A61087108A0E58E
:100DB000CA2EA0E4DA2EE12CF12CC818D908EA08D2
:100DC000FB08C414D504E604F70414F4EC5EFF4AEF
:100DD0008081FA01EC5EFF4A80832E5F3F4F2093B3
:100DE000105030931150E2E092E0BCCC11964C913F
:100DF000092F017009A71AA6E9A5FAA5E295F295AF
:100E0000F07FFE27E07FFE27842F82958F70E82BEE
:100E1000EC5EFF4A8081969591709BA71CA6EBA57E
:100E2000FCA5E295F295F07FFE27E07FFE274F704C
:100E3000E42BEC5EFF4A9081899FC00111248093CE
:100E400012509093135041E0009709F040E0440F96
:100E5000440F50910C405370452B40930C4090939D
:100E60001550809314502E5F3F4F209310503093B5
:100E70001150E2E092E076CC11964C91842F8F7065
:100E8000883010F00C94D51B192F11706A961FAF83
:100E90006A976B961FAE6B976B96EEADFFAD6B9737
:100EA000E295F295F07FFE27E07FFE27842F829562
:100EB0008F70E82BEC5EFF4A2081622F70E0609318
:100EC0001250709313509C70892F90E0880F991FD7
:100ED0004770842B8062E0913250F0913350E80FDC
:100EE000F91F6F010F2E000CEE08FF084601570195
:100EF0003FEF831A3FE1930AA108B10840E550E4AF
:100F000060E070E04C195D096E097F0948155905CC
:100F10006A057B0514F40C94071D20834091105042
:100F20005091115020910B40922F991F9927991F92
:100F300080910C408370880F892B8295880F807E6A
:100F4000982F95959595959595959595E0910A404D
:100F50008E2F8295869586958370E22FE170EE0F35
:100F6000EE0FE82BE295EE0FE07EE595E595E59531
:100F7000E595E5958A010E5F1F4F00931050109381
:100F80001150F0CB11964C911197E42FE695E69510
:100F9000E695F0E0EC5EFF4A80A190E0809312506D
:100FA00090931350477061E070E06B0102C0CC0C6D
:100FB000DD1C4A95E2F78C219D21892B09F4C4CBD5
:100FC00089010E5F1F4FB501A4014E5F5F4F6F4F48
:100FD0007F4F40931493509315936093169370939F
:100FE000179313969C91F801E35FFF4B808184393E
:100FF00010F00C945B1E823918F4803908F49ECBF3
:101000009F7009F09BCBA9014C5F5F4FC956DF4F22
:1010100048835983C759D04053E0850E911CA11CC9
:10102000B11C8092149390921593A0921693B09253
:1010300017938ACB1196EC914E2F477081E090E088
:1010400002C0880F991F4A95E2F78093125090933F
:101050001350E695E695E695F0E0EC5CFF4A90814A
:10106000892B80832E5F3F4F209310503093115077
:10107000E2E08E0E911CA11CB11C80921493909200
:101080001593A0921693B0921793E2E092E06ACB88
:101090001196AC9100E1909FC001112499274A2F2D
:1010A0004F70842BA295AF70B0E0AC5DBF4A4C91FD
:1010B00083FB772770F9642F681B63FB552750F972
:1010C00043FBEE27E0F961E06E27E52FE72B6E2367
:1010D0005723E62FE52B6E2F6295660F660F607C17
:1010E00050910A405F73562B50930A4050910B4029
:1010F0005E7F50930B40582F507847FD02C00C94F0
:10110000B11D552311F40C94281E642F70E06983DF
:101110007A8370E0572F5770652F6295607F5091EA
:101120000B405F78562B50930B4050910F505595C4
:101130005595559555955595850F911D57FD9A9542
:101140008C0197FF02C00C94F21D51E0E980FA80F7
:10115000E016F1060CF050E05295550F507E60916C
:101160000C406C71481B4C93842F90E0809312507C
:1011700090931350942F991F9927991F80910B409A
:1011800090FB87F980930B40562B50930C404423DF
:1011900011F40C94A11880E0482F440F440F809163
:1011A0000C40837E842B80930C40492F472781E09D
:1011B00014160CF03AC5880F40910B40417F842BE8
:1011C00080930B402E5F3F4F20931050309311506F
:1011D000C9CA11967C91E72FE295EF70F0E0EC5EC2
:1011E000FF4A0089402F50E060E1969FC001112422
:1011F000FC01FF27972F9F70BF01692BDA01A61B07
:10120000B70BA0931250B0931350982B892F80786E
:1012100007FD02C00C947D1D882311F40C94191E47
:101220001982898187708295807F8B8310910B4012
:1012300093FBEE27E0F9F02FF91BF3FB882780F9E9
:1012400003FB992790F9F1E09F27F82FFE2B9F23AE
:101250008E23E92FE82B9E2F9295990F990F907C62
:1012600080910A408F73892B80930A40812F8E7062
:101270008D01000F012F001F110B1195902F917000
:10128000F92FF795FF27F795CB808C298F2B80932B
:101290000B4080910C408C7F80930C4081E0AB2B05
:1012A00009F080E0880F880FF0910C40F37E8F2BBF
:1012B00080930C40F981F92781E01F1614F00C94FB
:1012C000E91D880FF0910B40F17F8F2B80930B402D
:1012D00081E0461757070CF0A5C08295880F807EE5
:1012E00040910C404F71842B80930C402E5F3F4FF8
:1012F000209310503093115035CA11968C91F92FCC
:10130000F170FF87188AEF85F889E295F295F07FF2
:10131000FE27E07FFE27482F42954F70E42BEC5EBE
:10132000FF4A408196959170998B1A8AE989FA89CA
:10133000E295F295F07FFE27E07FFE278F70E82B85
:10134000EC5EFF4AF081A42FB0E0AF1BB109A0937F
:101350001250B0931350F3FB662760F9842F8F1B54
:1013600083FB552750F943FB882780F991E08927B3
:10137000E52FE82BE6238523E82B9E2F9295990FE6
:10138000990F907C80910A408F73892B80930A403B
:1013900080910B408E7F80930B408F2F807847FD8C
:1013A00002C00C94C91D882311F40C944F1E60E0F8
:1013B000CD01880F892F881F990B9195562F577053
:1013C0005295507F10910B401F70982F9170792F7C
:1013D000779577277795812F852B872B80930B40E7
:1013E00080910C408C7F80930C4081E0AB2B09F006
:1013F00080E0880F880F50910C40537E852B80939E
:101400000C40692781E0161614F00C94EF1D880F2C
:1014100050910B40517F852B80930B4081E04F17FB
:1014200008F45BCF80E059CF11968C91092F0170A1
:101430000F831886AF81B885A295B295B07FBA2781
:10144000A07FBA27482F42954F70A42BAC5EBF4AAD
:101450001C9119839695917099871A86E985FA856A
:10146000E295F295F07FFE27E07FFE278F70E82B54
:10147000EC5EFF4A5081652F70E0610F711D609333
:10148000125070931350812F8F70E52FEF70F0E0A2
:10149000E80FF11DF295E295EF70EF27FF70EF274F
:1014A000E1709E2F9295990F990F907C80910A4040
:1014B0008F73892B80930A4080910B408E7F80939D
:1014C0000B40852F807817FD02C00C94A71F88233E
:1014D00011F40C94711C41E067FD40E04295440F0B
:1014E000407E45954595459545954595CB01880F99
:1014F000892F881F990B9195F42FF770F295F07F43
:1015000010910B401F70982F9170892F8795882715
:1015100087958B83812F8F2BFB818F2B80930B40A3
:1015200080910C408C7F80930C40492781E01416F9
:1015300014F00C94E01D880F40910B40417F842BE8
:1015400080930B4081E06115710509F080E0880F00
:10155000880F40910C40437E842B80930C4081E0A7
:101560006F3F710509F008F480E08295880F807E56
:1015700040910C404F71842B80930C40C9805C0DCE
:101580005C932E5F3F4F2093105030931150EAC868
:1015900011968C91A92FA170AB831C82AB81BC8169
:1015A000A295B295B07FBA27A07FBA27482F42955F
:1015B0004F70A42BAC5EBF4ADC904D2D50E0969549
:1015C00091709D831E82ED81FE81E295F295F07F00
:1015D000FE27E07FFE278F70E82BEC5EFF4AC0807D
:1015E0000C2D10E07A01E01AF10A80910F50807EF4
:1015F00061E0803209F060E070E0F701E61BF70B74
:10160000E983FA83E0931250F0931350C3FABB249A
:10161000B0F8FD2DFC19F3FBFF27F0F9D3FA88276A
:1016200080F991E08927E82FEF2BEB218F23E82B1E
:101630009E2F9295990F990F907C80910A408F73FD
:10164000892B80930A4080910B408E7F80930B40C2
:101650008C2D8078D7FC02C00C946A1D882311F46D
:101660000C94D214F12C8F2D8770F82FF295F07F07
:1016700080910B408F70C980DA80CC0CCD2CCC1CB3
:10168000DD08D1949C2D9170E92EE794EE24E79427
:101690008F2B8E2980930B4080910C408C7F809300
:1016A0000C40C980DA80CD2811F40C94A41880E095
:1016B000F82FFF0FFF0F80910C40837E8F2B8093BC
:1016C0000C40F92FFF2581E01F1614F00C94E61D45
:1016D000880FF0910B40F17F8F2B80930B40600FB0
:1016E000711F81E0461757070CF080E08295880F44
:1016F000807E40910C404F71842B80930C40D980A8
:10170000DC922E5F3F4F20931050309311502AC827
:1017100011968C91192F11701F8F18A2EF8DF8A1BF
:10172000E295F295F07FFE27E07FFE27482F429555
:101730004F70E42B9270A92FB0E0AA0FBB1FAA0F25
:10174000BB1FAA0FBB1F8F70A82BAC5EBF4AEC5EFD
:10175000FF4A9C91808189278083682F70E0609385
:1017600012507093135050910B40982F991F992746
:10177000991F492F479544274795852F8F70842BB4
:1017800080930B4080910C408C7F80930C4081E0D3
:10179000672B09F080E0880F880F40910C40437E52
:1017A000842B80930C4081E019160CF0BBC5880F88
:1017B00040910B40417F842B80930B402E5F3F4F25
:1017C0002093105030931150E2E00C94B203119624
:1017D0008C91092F01700F8B188EAF89B88DA2954F
:1017E000B295B07FBA27A07FBA27482F42954F7095
:1017F000A42BAC5EBF4A4C9196959170998F1A8E2E
:10180000E98DFA8DE295F295F07FFE27E07FFE27C5
:101810008F70E82BEC5EFF4A8081682F70E0640FC8
:10182000711D69837A8390910F50907E61E070E022
:10183000903211F060E070E0E981FA816E0F7F1F55
:101840006093125070931350942F9F70E82FEF7095
:10185000F0E0E90FF11DF295E295EF70EF27FF70D0
:10186000EF27E1705E2F5295550F550F507C9091E8
:101870000A409F73952B90930A4090910B409E7F56
:1018800090930B40807847FD02C00C94B31F8823CF
:1018900011F40C946E1C41E0F981F7FD40E0429593
:1018A000440F407E45954595459545954595842F32
:1018B0008770582F5295507F80910B408F7089838D
:1018C000CB01880F892F881F990B9195982F9170C4
:1018D000F92FF795FF27F7958981852B8F2B80931B
:1018E0000B4080910C408C7F80930C4081E061150F
:1018F000710509F080E0880F880F50910C40537EED
:10190000852B80930C40492781E0141614F00C9429
:10191000F81D880F40910B40417F842B80930B4032
:1019200081E06F3F710509F008F480E08295880F2F
:10193000807E40910C404F71842B80930C406C93BF
:101940002E5F3F4F20931050309311500C94B203F0
:1019500011968C91492F41704B8B1C8AAB89BC89A5
:10196000A295B295B07FBA27A07FBA27482F42959B
:101970004F70A42BAC5EBF4A6C91969591709D8B75
:101980001E8AED89FE89E295F295F07FFE27E07FC1
:10199000FE278F70E82BEC5EFF4AF081462F50E067
:1019A0004F1B51094093125050931350162F1F1B79
:1019B000F3FB772770F913FB882780F9898363FB92
:1019C000882780F991E08927E981E82B9E2F9723CA
:1019D000E9818E23E92FE82B9E2F9295990F990F7D
:1019E000907C80910A408F73892B80930A4080916C
:1019F0000B408E7F80930B408F2F807867FD02C055
:101A00000C94951D882311F40C943F1E1982CA0171
:101A1000880F892F881F990B91957981D9807770CC
:101A20007295707F00910B400F70982F9170C92EA6
:101A3000C794CC24C794802F872B8C2980930B408C
:101A400080910C408C7F80930C40D92681E01D143E
:101A500014F00C94E31D880F70910B40717F872B5D
:101A600080930B4081E0452B09F080E0880F880FC0
:101A700040910C40437E842B80930C4081E06F1793
:101A800008F080E08295880F807E40910C404F7175
:101A9000842B80930C401C932E5F3F4F209310505B
:101AA000309311500C94B20311968C9190FB222428
:101AB00020F8312CF101E295F295F07FFE27E07FCE
:101AC000FE27482F42954F70E42BEC5EFF4AA08121
:101AD0006A2F70E09695917099831A82E981FA8154
:101AE000E295F295F07FFE27E07FFE278F70E82BCE
:101AF000EC5EFF4AF080CF2CD12CC982DA82909123
:101B00000F50092F007EE02E81E010E2011380E0EB
:101B1000082F10E0AB01E981FA814E1B5F0B401BDF
:101B2000510B409312505093135095959595959560
:101B300095959595E90FF11D97FDFA9591E03197EF
:101B400009F090E0EA2FE91BE3FBFF27F0F9A3FB84
:101B5000EE27E0F991E0E927EF23FE2FF295FF0F42
:101B6000FF0FF07C90910A409F739F2B90930A4047
:101B700090910B409E7F90930B408F0D982F907803
:101B8000A7FD02C00C94561D992309F4FDC6B0E0D0
:101B90008B2F8770F82FF295F07F80910B408F701C
:101BA000C82ECA01880F892F881F990B9195982FED
:101BB0009170D92ED794DD24D7948C2D8F2B8D291D
:101BC00080930B4080910C408C7F80930C40452B80
:101BD00011F40C94A71880E0482F440F440F809113
:101BE0000C40837E842B80930C4049815A81400FA6
:101BF000511F81E0641775070CF080E08295880F13
:101C0000807E40910C404F71842B80930C40A7FF45
:101C100002C00C94C21C5FE7F51611F40C94FB1D76
:101C2000B92781E01B160CF4C6CA80E0C4CA11961D
:101C3000EC91AE2FA295AF70B0E0AA0FBB1FAC5EC7
:101C4000BF4A8C91EF70F0E0EE0FFF1FEC5EFF4A91
:101C50009081899FC001112480931250909313505A
:101C600080931450909315502E5F3F4F2093105047
:101C700030931150F2E08F0E911CA11CB11C809288
:101C8000149390921593A0921693B0921793E2E05A
:101C900092E00C94B2031196EC91AE2FA295AF7026
:101CA000B0E0AA0FBB1FEF70F0E0EE0FFF1FEC5E7D
:101CB000FF4A8081AC5EBF4A8C93818111968C93E0
:101CC0000C94DE0411968C91882311F40C94DE049C
:101CD0000E94572811968C911197092F01700B873C
:101CE0001C86EB85FC85E295F295F07FFE27E07F70
:101CF000FE27482F42954F70E42BBF016C5E7F4A50
:101D0000969591709D871E86ED85FE85E295F295EC
:101D1000F07FFE27E07FFE278F70E82BAF014C5E3F
:101D20005F4AFB019081FA01808198130C94A4030F
:101D300089010E5F1F4FB501A4014E5F5F4F6F4FCA
:101D40007F4F409314935093159360931693709321
:101D5000179313969C91F801E35FFF4B80818439C0
:101D600010F00C94D51F823920F4803910F40C94B3
:101D70009E039F7011F00C949E0389010C5F1F4F0E
:101D8000C956DF4F08831983C759D04013E0810E2D
:101D9000911CA11CB11C8092149390921593A09257
:101DA0001693B09217930C94A40311968C9191FB07
:101DB000552750F95DA31EA2EDA1FEA1E295F29573
:101DC000F07FFE27E07FFE27482F4F70E42BEC5E6C
:101DD000FF4A408191709FA318A6EFA1F8A5E29554
:101DE000F295F07FFE27E07FFE2782958F70E82B2B
:101DF0000C94170611968C91492F417049A31AA291
:101E0000E9A1FAA1E295F295F07FFE27E07FFE2797
:101E1000482F42954F70E42B969591709BA31CA27E
:101E2000ABA1BCA1A295B295B07FBA27A07FBA277B
:101E30008F70A82BAC5EBF4AEC5EFF4A9C918081FC
:101E4000892B682F70E06093125070931350808339
:101E50008ACC11968C91092F01700B8F1C8EEB8D03
:101E6000FC8DE295F295F07FFE27E07FFE27482F5C
:101E700042954F70E42B969591709D8F1E8EAD8D7F
:101E8000BE8DA295B295B07FBA27A07FBA278F707A
:101E9000A82BAC5EBF4AEC5EFF4A9C9180818923EF
:101EA000D0CF11968C91482F4F709170483010F41C
:101EB0000C9421192A969FAF2A972B961FAE2B9729
:101EC0002B96EEADFFAD2B97E295F295F07FFE27B6
:101ED000E07FFE27982F92959F70E92BE093125098
:101EE000F093135087708061A0913050B0913150C1
:101EF000BD01680F711D69837A83AB01770F660B93
:101F0000770B6A017B018FEFC81A8FE1D80AE108CD
:101F1000F10880E590E4A0E0B0E0841B950BA60BEF
:101F2000B70B8C159D05AE05BF0514F40C945F1915
:101F3000A981BA818C910C94EA0611968C91282F74
:101F40002F709170283010F40C94E41A26969FAFED
:101F5000269727961FAE27972796EEADFFAD2797BA
:101F6000E295F295F07FFE27E07FFE27982F92956D
:101F70009F70E92BEC5EFF4A2081E22FF0E0E093B6
:101F80001250F093135087708860E0913050F091B8
:101F90003150E80FF11D6F010F2E000CEE08FF0805
:101FA000460157011FEF811A1FE1910AA108B108EC
:101FB00080E590E4A0E0B0E08C199D09AE09BF096E
:101FC00088159905AA05BB0514F40C949A1820836A
:101FD0002091105030911150C956DF4F288339831A
:101FE000C759D04040911493509115936091169326
:101FF0007091179320910B40922F991F9927991F49
:1020000080910C408370880F892B8295880F807E89
:10201000982F95959595959595959595E0910A406C
:102020008E2F8295869586958370E22FE170EE0F54
:10203000EE0FE82BE295EE0FE07EE595E595E59550
:10204000E595E595C956DF4F08811981C759D040FC
:102050000E5F1F4F00931050109311504F5F5F4F52
:102060006F4F7F4F40931493509315936093169343
:10207000709317930C94B20311964C91943911F408
:102080000C94A81C842F8F7D883811F40C94DE04E6
:10209000483011F40C940125493011F40C94812539
:1020A000483111F40C944025842F8F70C82ED12C08
:1020B000F6018827E250FE4F8F4F0C944F28F9010C
:1020C000E25FFF4B3F018081E82FEF7011F00C942D
:1020D000311B7901F3E0EF0EF11C2E5F3F4F8901B8
:1020E000000F111FF801E65FFF4D6F0100811181A4
:1020F000012B11F40C94941E8901035F1F4B97016F
:10210000235F3F4B917064969FAF649765961FAEB7
:1021100065976596AEADBFAD6597A295B295B07F58
:10212000BA27A07FBA2782958F70A82BAC5EBF4AD2
:10213000AC91F801808190E0982F8827F9012081E7
:10214000FC01E22B4F010F2E000CAA08BB08240152
:1021500035010FEF401A0FE1500A61087108B0E530
:10216000CB2EB0E4DB2EE12CF12CC818D908EA08FC
:10217000FB08C414D504E604F70414F40C94001D01
:10218000A0832091105030911150C956DF4F288301
:102190003983C759D0404091149350911593609161
:1021A00016937091179320910B40922F991F9927A6
:1021B000991F80910C408370880F892B8295880F1E
:1021C000807E982F95959595959595959595E09107
:1021D0000A408E2F8295869586958370E22FE17056
:1021E000EE0FEE0FE82BE295EE0FE07EE595E5951C
:1021F000E595E595E595C956DF4F08811981C759E1
:10220000D0400C5F1F4F00931050109311504F5F40
:102210005F4F6F4F7F4F409314935093159360938C
:102220001693709317930C94B20311968C91482FC8
:102230004F709170483010F40C94AC1A99AF1AAEEC
:10224000E9ADFAADE295F295F07FFE27E07FFE273B
:10225000982F92959F70E92BE0931250F0931350B2
:102260008770A0913050B0913150A80FB11D6D0111
:102270000B2E000CEE08FF08460157014FEF841AA1
:102280004FE1940AA108B10840E550E460E070E035
:102290004C195D096E097F09481559056A057B05CA
:1022A00014F4AC5EBF4A8C910C94EA0611964C91E2
:1022B000E42FE295EF70F0E000E1909FC00111245F
:1022C00099274F70842BEC5DFF4A9081892B808386
:1022D000482F50E04093125050931350982F991F5D
:1022E0009927991F80910B4090FB87F980930B40B1
:1022F00080910C408C7F80930C4081E0452B09F04D
:1023000080E0880F880F40910C40437E842B80939F
:102310000C4080910B408F7880930B4081E0191620
:102320000CF445CA80E043CA1196AC9100E1909F3D
:10233000A001112455278A2F8F70482BA295AF70CA
:10234000B0E0AC5DBF4AFC919F2F941B43FBEE278E
:10235000E0F993FB772770F9F3FB882780F961E0B8
:102360006827872F8E2B6823E723E62B7E2F729515
:10237000770F770F707C60910A406F73672B6093C3
:102380000A4060910B406E7F60930B40842F8078F1
:10239000F7FD02C00C94BF1F882311F40C943A1E61
:1023A000CF2ED12CC982DA82B601640F751F81E06D
:1023B00067FD80E08295880F807E8595859585955F
:1023C00085958595C980DA80682F6770762F72951C
:1023D000707F60910B406F78672B60930B4061E0DA
:1023E000C416D5060CF060E06295660F607E4091E1
:1023F0000C404C719C93A92FB0E0A0931250B09365
:102400001350991F9927991F50910B4090FB57F932
:1024100050930B40642B60930C4041E0AB2B09F0D0
:1024200040E0440F440F50910C40537E452B4093A5
:102430000C40892741E0181614F00C94EC1D440F51
:1024400080910B40817F482B40930B402E5F3F4F84
:1024500020931050309311500C94B2031196EC91CC
:102460004E2F477081E090E002C0880F991F4A9577
:10247000E2F78093125090931350E695E695E69517
:10248000F0E0EC5CFF4A80959081892380832E5F89
:102490003F4F2093105030931150B2E08B0E911C9F
:1024A000A11CB11C8092149390921593A092169344
:1024B000B0921793E2E092E00C94B20311968C91E3
:1024C000482F4F70483008F401C7092F0170229639
:1024D0000FAF229723961FAE23972396EEADFFAD45
:1024E0002397E295F295F07FFE27E07FFE27482FA5
:1024F00042954F70E42BE0931250F09313509C7070
:10250000492F50E0440F551F8770BA01682BCB014B
:102510004091305050913150DC01A40FB51F6D0136
:102520000B2E000CEE08FF08460157017FEF871ABB
:102530007FE1970AA108B10840E550E460E070E04F
:102540004C195D096E097F09481559056A057B0517
:102550000CF4A7CE8C910C94EA0611968C91282F3E
:102560002F709170283008F4FAC69DAF1EAEEDAD05
:10257000FEADE295F295F07FFE27E07FFE27982FD3
:1025800092959F70E92BEC5EFF4A2081E22FF0E0EC
:10259000E0931250F09313508770E0913050F09117
:1025A0003150E80FF11D6F010F2E000CEE08FF08EF
:1025B000460157018FEF881A8FE1980AA108B108E8
:1025C00080E590E4A0E0B0E08C199D09AE09BF0958
:1025D00088159905AA05BB050CF4ACC52083A0910C
:1025E0001050B091115040911493509115936091F7
:1025F00016937091179320910B40922F991F992752
:10260000991F80910C408370880F892B8295880FC9
:10261000807E982F95959595959595959595E091B2
:102620000A408E2F8295869586958370E22FE17001
:10263000EE0FEE0FE82BE295EE0FE07EE595E595C7
:10264000E595E595E5958D0103CD8901025F1F4B69
:10265000F8018081482F4F7009F07CC5B9016D5F8A
:102660007F4F7901F2E0EF0EF11CF701EE0FFF1F33
:10267000AF01465F5F4D6A01FA0140815181452BF0
:1026800011F40C94B51E8701035F1F4B7801AB0159
:10269000435F5F4B917062969FAF629763961FAEE8
:1026A000639763966EAD7FAD639762957295707F09
:1026B0007627607F762782958F70682BF70180815F
:1026C00090E0982F8827DA014C91FC01E42B2F0130
:1026D0000F2E000C66087708D301C2018F5F9F415F
:1026E000A109B10910E5C12E10E4D12EE12CF12C85
:1026F000C418D508E608F708C816D906EA06FB0686
:1027000014F4EC5EFF4A8081FB01EC5EFF4A80839B
:102710002C5F3F4FBECE1196EC9110E1919FA0012E
:10272000112455278E2F8F70482B409312505093B1
:102730001350E295EF70F0E0EC5DFF4A8081842356
:102740008083CA01880F892F881F990B9195982F34
:102750009170C8CD11968C91F82FF073CF2ED12C9B
:10276000D594C794D594C794D594C794D594C79459
:10277000C982DA8286010230110511F40C940D1E13
:102780000330110511F40C94071E0130110511F4EA
:102790000C94131EA9E1B0E0E8E1F0E0AC5EBF4AA2
:1027A000AC91B0E0BA2FAA27EC5EFF4AE081AE2BD5
:1027B000E82FE07CEE2EF12CF594E794F594E79465
:1027C000A7FD02C00C94451D00E08F70F0910B40F6
:1027D000FF78102F1295107FF12BF0930B40963954
:1027E00009F4C3C0E82AFD01EE19FF09E093125075
:1027F000F093135081E0AE17BF0708F0C3C0829575
:10280000880F807E90910C409F71892B80930C40A3
:102810009F2F991F9927991F80910B4090FB87F953
:1028200080930B4080910C408C7F80930C4081E022
:10283000309709F080E0880F880FA0910C40A37EAC
:102840008A2B80930C40092781E0101614F00C9419
:102850007F1E880FA0910B40A17F8A2B80930B4095
:10286000A981BA81A230B10511F40C94821EA33063
:10287000B10511F40C948E1E119711F40C94881E5E
:10288000E0932C50F0932D502E5F3F4F209310502B
:10289000309311504F5F5F4F6F4F7F4F40931493B2
:1028A000509315936093169370931793E0910A4099
:1028B0008E2F8295869586958370E0910B400C94BF
:1028C0008B0611968C91282F2F70283008F4C3C5E1
:1028D000B92FB1702E96BFAF2E972F961FAE2F97A0
:1028E0002F96EEADFFAD2F97E295F295F07FFE2784
:1028F000E07FFE27282F22952F70E22BEC5EFF4A07
:10290000A0812A2F30E020931250309313509C70F6
:10291000292F30E0220F331F8770F901E82BCF01F8
:10292000E0913050F0913150E80FF91F4F010F2E18
:10293000000CAA08BB08240135010FEF401A0FE173
:10294000500A61087108B0E5CB2EB0E4DB2EE12C13
:10295000F12CC818D908EA08FB08C414D504E60409
:10296000F7040CF471C5A08333CBF701E82BEA0F11
:10297000FB1FE0931250F093135081E0EA17FB071E
:1029800008F43DCF80E03BCF6B01C81AD108C601E7
:10299000880F892F881F990B9195B1E08B27B82F4D
:1029A000B170F6C8EE0CEF2CEE1CFF08F194C701D5
:1029B000F1E08F27F82FF170FF2E0C94330BC90133
:1029C0000396F9013296AF01440F551F465F5F4DE4
:1029D000DA016D917C91E35FFF4B672B11F40C944E
:1029E0009F278C01035F1F4B09831A83808190E02E
:1029F000982F8827E981FA814081842B880F991FBD
:102A00004091002050910120840F951F8093125017
:102A100090931350D9011496E0917150F091725037
:102A2000EC5EFF4AA0830091715010917250012E0C
:102A3000000C220B330B0150110921093109412FE0
:102A400050E01093725000937150542F4427402B44
:102A5000FA01EC5EFF4AB083409171505091725080
:102A6000052E000C660B770B415051096109710965
:102A70005093725040937150809310509093115026
:102A8000E2E092E00C94B203C9010396F901329698
:102A90009F01220F331F265F3F4DD9014D915C915D
:102AA000E35FFF4B452B11F40C94B9278C01035FB6
:102AB0001F4B09831A83808190E0982F8827E98132
:102AC000FA812081822B8093125090931350880FAB
:102AD000991F2091002030910120820F931F809335
:102AE000105090931150F3E08F0E911CA11CB11C5B
:102AF0008092149390921593A0921693B09217938C
:102B0000E2E092E00C94B2039170CD56DF4F9883CF
:102B1000C359D040CC56DF4F1882C459D040CD564F
:102B2000DF4FE881F981C359D040E295F295F07FFB
:102B3000FE27E07FFE2742954F70E42BEC5EFF4AB4
:102B4000408150E0A1E04038510509F0A0E08091BB
:102B50000B40B82FBF704150510940931250509311
:102B600013504083BA01660F672F661F770B71956C
:102B70006170962F762F7795772777958A2F829594
:102B8000807F8B2B872B80930B40862F86958370BD
:102B900070910C407C7F872B80930C4081E0452B0B
:102BA00009F080E0880F880F40910C40437E842B11
:102BB00080930C4081E0A6130C94D70B80E00C941A
:102BC000D70B9170C557DF4F9883CB58D040C4576F
:102BD000DF4F1882CC58D040C557DF4FE881F981CC
:102BE000CB58D040E295F295F07FFE27E07FFE279C
:102BF00042954F70E42BEC5EFF4A808190E051E0FB
:102C00008F37910509F050E040910B40A42FAF7031
:102C1000019680931250909313508083BC01660FED
:102C2000672F661F770B71956170962F762F7795BA
:102C300077277795452F4295407F4A2B472B409326
:102C40000B40462F4695437070910C407C7F472B7C
:102C500040930C4041E0811140E0440F440F8091CB
:102C60000C40837E842B80930C4081E056130C949F
:102C7000D70B80E00C94D70B9170C757DF4F988328
:102C8000C958D040C657DF4F1882CA58D040C757DE
:102C9000DF4FE881F981C958D040E295F295F07F85
:102CA000FE27E07FFE2742954F70E42BEC5EFF4A43
:102CB000408150E1459FC001112442954F70842B03
:102CC00080931250909313500C94EC069170C95756
:102CD000DF4F9883C758D040C857DF4F1882C85875
:102CE000D040C957DF4FE881F981C758D040E295FD
:102CF000F295F07FFE27E07FFE2742954F70E42B90
:102D0000EC5EFF4A8081803859F090E09195819582
:102D10009109AC0155274093125050931350808372
:102D2000808183FBEE27E0F991E0E927819583FB21
:102D3000882780F9E82B8E2F8295880F880F807C5A
:102D400090910A409F73892B80930A4080910B4099
:102D50008E7F80930B406091125070911350F1E080
:102D60006038710509F0F0E080910B40982F9F7852
:102D70008F2F8295807F892B80930B4081E0611596
:102D8000710509F480E08295880F807EA0910C4047
:102D9000AC71AB01440F452F441F550B5195417049
:102DA000942F50910B4040FB57F950930B408A2BC6
:102DB00080930C4081E0672B09F080E0880F880F3A
:102DC00050910C40537E852B80930C4081E0F4138E
:102DD0000C94DB0880E00C94DB089170CB57DF4F3C
:102DE0009883C558D040CA57DF4F1882C658D04084
:102DF000CB57DF4FE881F981C558D040E295F29575
:102E0000F07FFE27E07FFE2742954F70E42BEC5EBB
:102E1000FF4A808190E08095909580931250909326
:102E20001350808340910B40880F892F881F990B86
:102E30009195982F9170892F8795882787954F7046
:102E4000842B80930B4080E280930C4081E0191624
:102E500014F40C94D70B80E00C94D70B9170C157ED
:102E6000DF4F9883CF58D040C057DF4F1882C059EA
:102E7000D040C157DF4FE881F981CF58D040E2956B
:102E8000F295F07FFE27E07FFE2742954F70E42BFE
:102E9000EC5EFF4A8081A82FA1706A2F6295660FB1
:102EA000607E70910C407C7190E0AC015695479526
:102EB000409312505093135080910B408F77809322
:102EC0000B40872F862B80930C4081E01A1614F05C
:102ED0000C94D7278295880F807E8595859585955A
:102EE00085958595982F97709295907F60910B406E
:102EF0006F78962B90930B4091E04115510509F0A6
:102F000090E0990F990F60910C40637E962B9093FF
:102F10000C4091E0181614F00C94B627990F80918C
:102F20000B40817F892B80930B4040832E5F3F4F66
:102F30002093105030931150E2E090E00C94B203D3
:102F40009170C357DF4F9883CD58D040C257DF4FA1
:102F50001882CE58D040C357DF4FE881F981CD5851
:102F6000D040E295F295F07FFE27E07FFE27429564
:102F70004F70E42BEC5EFF4A8081B82FB1705B2F5D
:102F80005295550F507EA0910C40AC71682F70E0A7
:102F9000769567958078682B6093125070931350E4
:102FA000CB01880F892F881F990B9195482F41706D
:102FB000942F80910B4040FB87F980930B408A2F20
:102FC000852B80930C4051E0B41711F40C94D42756
:102FD00080910B40A82FAF78852F8295807F8A2B18
:102FE00080930B4081E06115710509F080E0880F46
:102FF000880FA0910C40A37E8A2B80930C4081E027
:10300000451711F40C94D127880F40910B40417F54
:10301000842B80930B4060832E5F3F4F2093105092
:1030200030931150E2E00C94B2039170CF56DF4F11
:103030009883C159D040CE56DF4F1882C259D04034
:10304000CF56DF4FE881F981C159D040E295F29522
:10305000F07FFE27E07FFE2742954F70E42BEC5E69
:10306000FF4A8081B82FB1707B2F7295770F707EE9
:10307000A0910C40AC7140910F50459545954595F8
:103080004595459560E84603A001112490E096958A
:103090008795482B592B4093125050931350CA01D7
:1030A000880F892F881F990B9195682F6170962F33
:1030B00080910B4060FB87F980930B408A2F872B10
:1030C00080930C4071E0B61711F40C949427809112
:1030D0000B40A82FAF78872F8295807F8A2B809313
:1030E0000B4081E04115510509F080E0880F880F01
:1030F000A0910C40A37E8A2B80930C4081E067173F
:1031000011F40C949127880F50910B40517F852B1F
:1031100080930B4040832E5F3F4F2093105030939D
:103120001150E2E00C94B20361E070E080E090E0C6
:103130000C943104EC5EFF4A2083E2E092E00C94B0
:10314000221082E00C94CC0882E00C94580B82E0B0
:103150000C94EC0D413009F429C6423009F457C7EC
:10316000443011F40C948D21453011F40C94DE227E
:10317000473011F40C946023493011F40C9443242B
:103180004A3011F40C9433264C3011F40C94A126DF
:103190004D3011F40C944A274E3011F40C94FF2654
:1031A0004F3011F00C94680E9170E8969FAFE8973D
:1031B000E9961FAEE997E9964EAD5FADE997429566
:1031C0005295507F5427407F542782958F70482B0B
:1031D0004093125050931350C0907150D090725041
:1031E0000D2C000CEE08FF08FFEFCF1ADF0AEF0AE4
:1031F000FF0A8D2D90E0D0927250C0927150982F9E
:1032000088278C29FC01EC5EFF4A8081FA01EC5E84
:10321000FF4A80832E5F3F4F209310503093115010
:1032200002E0800E911CA11CB11C8092149390921C
:103230001593A0921693B0921793E2E092E00C944B
:10324000B2032C969FAF2C972D961FAE2D972D96DF
:10325000EEADFFAD2D97E295F295F07FFE27E07F72
:10326000FE27982F92959F70E92BE0931250F093D0
:10327000135087708061A0913250B09133506D012E
:10328000C80ED11CC982DA82A601DD0C660B770B51
:103290006A017B010FEFC01A0FE1D00AE108F108C3
:1032A00080E590E4A0E0B0E0841B950BA60BB70B83
:1032B0008C159D05AE05BF0514F00C94980FA981DF
:1032C000BA81AC5EBF4A8C910C94EA06A92FA1701A
:1032D0002496AFAF249725961FAE25972596EEAD81
:1032E000FFAD2597E295F295F07FFE27E07FFE2760
:1032F000482F42954F70E42BE0931250F0931350F7
:103300009C70492F50E0440F551F87706A01C82AEE
:10331000C6014091325050913350DC01A40FB51FCB
:103320006D010B2E000CEE08FF08460157010FEF50
:10333000801A0FE1900AA108B10840E550E460E06E
:1033400070E04C195D096E097F09481559056A0539
:103350007B0514F40C9451118C910C94EA069FAFE8
:1033600021961FAE21972196EEADFFAD2197E295F4
:10337000F295F07FFE27E07FFE27982F92959F70B1
:10338000E92BEC5EFF4A2081E22FF0E0E09312503F
:10339000F09313508770E0913250F0913350E80F62
:1033A000F11D6F010F2E000CEE08FF0846015701BA
:1033B000BFEF8B1ABFE19B0AA108B10880E590E43A
:1033C000A0E0B0E08C199D09AE09BF0988159905E8
:1033D000AA05BB050CF4AECE2083C0901050D0904F
:1033E00011504091149350911593609116937091E0
:1033F000179320910B40922F991F9927991F809125
:103400000C408370880F892B8295880F807E982FBF
:1034100095959595959595959595E0910A408E2F62
:103420008295869586958370E22FE170EE0FEE0F00
:10343000E82BE295EE0FE07EE595E595E595E595BF
:10344000E59586010C942810EC5EFF4AA083E2E02B
:1034500092E00C942210392F317060963FAF609744
:1034600061961FAE61976196EEADFFAD6197E295F3
:10347000F295F07FFE27E07FFE27282F22952F7000
:10348000E22BEC5EFF4AA0812A2F30E020931250FD
:10349000309313509C70292F30E0220F331F877018
:1034A000F901E82BCF01E0913250F09133503CCA42
:1034B000880F991F8A0F9B1F809310509093115073
:1034C0000C94E805E92FE1706896EFAF689769966C
:1034D0001FAE699769964EAD5FAD6997429552955B
:1034E000507F5427407F5427682F62956F70462B7A
:1034F00040931250509313509C70692F70E0660FE8
:10350000771F87706B01C82AC6018062E091305036
:10351000F0913150E80FF91F4F010F2E000CAA084F
:10352000BB08240135010FEF401A0FE1500A610872
:10353000710880E5C82E80E4D82EE12CF12CC81843
:10354000D908EA08FB08C414D504E604F70414F407
:103550000C94E6060C94E8069BAF1CAEEBADFCADFC
:10356000E295F295F07FFE27E07FFE27982F929557
:103570009F70E92BE0931250F09313508770A09145
:103580003250B0913350A80FB11D6D010B2E000CBD
:10359000EE08FF08460157015FEF851A5FE1950AC3
:1035A000A108B10840E550E460E070E04C195D0905
:1035B0006E097F09481559056A057B0514F40C94BA
:1035C00051118C910C94EA0628969FAF2897299662
:1035D0001FAE29972996EEADFFAD2997E295F2959A
:1035E000F07FFE27E07FFE27982F92959F70E92BB2
:1035F000EC5EFF4A2081E22FF0E0E0931250F0935E
:10360000135087708860E0913250F0913350E80F8A
:10361000F11D6F010F2E000CEE08FF084601570147
:103620003FEF831A3FE1930AA108B10880E590E4D7
:10363000A0E0B0E08C199D09AE09BF098815990575
:10364000AA05BB050CF476CD208340911050509113
:103650001150C956DF4F48835983C759D0400C9445
:10366000F20FE13009F400C4E23009F432C5E93068
:1036700009F4F6C5EA3009F43CC7EF3011F40C94B4
:10368000D223EC3011F40C948F24ED3011F40C940F
:10369000CF25EE3011F00C94680E9170CD57DF4FAE
:1036A0009883C358D040CC57DF4F1882C458D040BD
:1036B000CD57DF4FE881F981C358D040E295F295AC
:1036C000F07FFE27E07FFE2782958F70E82BEC5E6F
:1036D000FF4A9081492F50E040931250509313506D
:1036E00080912E5081110C94CA258FEF80932E501B
:1036F00080912F50815080932F50E0912E50F09167
:103700002F504F010F2E000CAA08BB0824013501D1
:103710000FEF401A0FE1500A6108710840E550E4CC
:1037200060E070E0481959096A097B09441555059C
:103730006605770514F40C94EF249083C0901493DD
:10374000D0901593E0901693F0901793209110501D
:10375000309111502E5F3F4F2093105030931150F5
:103760001FEFC11AD10AE10AF10AC0921493D09254
:103770001593E0921693F092179320910B40822FAD
:10378000881F8827881F90910C409370990F892B70
:103790008295880F807E982F95959595959595950E
:1037A000959580910A400C948606592F51706C961D
:1037B0005FAF6C976D961FAE6D976D96EEADFFADDA
:1037C0006D97E295F295F07FFE27E07FFE27842F2C
:1037D00082958F70E82BEC5EFF4AA0812A2F30E0A3
:1037E00020931250309313509C70292F30E0220FF9
:1037F000331F842F8770B901682BCB018062E09161
:103800003050F0913150E80FF91F6F010F2E000C6E
:10381000EE08FF08460157017FEF871A7FE1970AFC
:10382000A108B10840E550E460E070E04C195D0982
:103830006E097F09481559056A057B050CF4B3C06C
:10384000A083A0911050B091115020910B40922F65
:10385000991F9927991F80910C408370880F892B9D
:103860008295880F807E982F95959595959595953D
:103870009595E0910A408E2F829586958695837066
:10388000E22FE170EE0FEE0FE82BE295EE0FE07EF7
:10389000E595E595E595E595E5958D010C94BB07D6
:1038A0002E5F3F4F880F991F280F391F0C94E0049B
:1038B000813009F485C3823009F471C4843009F47D
:1038C0007EC4863011F00C94680E80910D50887380
:1038D000883011F00C94A4030C94610540E00C9422
:1038E000570C40E0CB01880F892F881F990B9195C9
:1038F0000C947C0A6E969FAF6E976F961FAE6F9773
:103900006F96EEADFFAD6F97E295F295F07FFE27D3
:10391000E07FFE27982F92959F70E92BEC5EFF4A7F
:10392000877041E050E0BA0102C0660F771F8A95A8
:10393000E2F7CB019081892B80830C94DE048F3FCA
:1039400011F00C94210660E070E0CB010C9431047E
:10395000483009F470C4493009F44BC5483609F4BD
:103960006EC5483709F47BC5483E09F489C5483F10
:1039700009F4B7C5842F8F7D883811F00C9454104A
:103980000C94DE04FFE7FF120C94100E70E2E712B5
:103990000C94100E80910B408F78806180930B40C7
:1039A000B1E00C94100EEC5EFF4AA083E2E092E0DE
:1039B000C956DF4F08811981C759D0400C94BB0705
:1039C000863910F00C949E039F709C3010F40C9478
:1039D0009E03D9011496C956DF4FA883B983C759EE
:1039E000D040B3E08B0E911CA11CB11C80921493AB
:1039F00090921593A0921693B09217930C94A403EF
:103A0000EC5EFF4AA083E2E092E00C94FB10EC5ED7
:103A1000FF4A2083E2E092E0C956DF4F0881198116
:103A2000C759D0400C94BB07413009F41DC5443040
:103A300009F42AC5463011F00C94680E40910D50DF
:103A4000487311F00C94A403937040E2949F80019A
:103A50001124869586958695B801682BCB018093B5
:103A6000125090931350813491050CF43AC13A9559
:103A7000880F991FDC01A20FB31FC956DF4FA8831F
:103A8000B983C759D0400C9446058F70E82FEE29B2
:103A90008D0111270E0F111DE7FD1A95000F012F43
:103AA000001F110B119501700C94E613992311F46A
:103AB0000C94C70D6B01C81AD108B1E0C7FEBAC695
:103AC000B295BB0FB07EB595B595B595B595B59545
:103AD0000C94C80D882311F40C94320BFF24F3943A
:103AE000E7FEA4C6F294FF0CF0EEFF22F594F594E5
:103AF000F594F594F5940C94330B882311F40C94FD
:103B0000100981E08983FA01E91BF109E7FFA5C6E5
:103B1000E981E295EE0FE07EE595E595E595E59581
:103B2000E595E9838E2F0C941209882311F40C94E7
:103B3000060D81E0898347FF7BC699819295990F95
:103B4000907E959595959595959595959983CA01AE
:103B5000880F892F881F990B91957981D9800C94B2
:103B60000F0D552311F40C948508C42ED12CC98255
:103B7000DA82B601681B790B71E067FF6CC672953B
:103B8000770F707E759575957595759575950C94EF
:103B90008A08882311F40C94D70961E0A7FF6CC64A
:103BA0006295660F607E65956595659565956595E9
:103BB000CD01880F892F881F990B91950C94DE09F0
:103BC00080E00C949B0A80E00C942B0D80E00C9418
:103BD000680B80E00C94610940E00C941F1280E0B7
:103BE0000C94070A00271127081B190B0C94A50831
:103BF00080E00C94890C60E2E6120C94100E809127
:103C00000B408F7880930B40B0E00C94100EAFE126
:103C1000B0E0EEE1F0E00C94CE13ADE1B0E0ECE109
:103C2000F0E00C94CE13ABE1B0E0EAE1F0E00C94EC
:103C3000CE13FA01E91BF109EE0FEF2FEE1FFF0B78
:103C4000F19511E0E127E170E9838E2F0C941209C0
:103C5000C42ED12CC982DA82B601681B790B660F9B
:103C6000672F661F770B719501E06027762F7170C3
:103C70000C948A086F2F70E06B010C94E411CA0158
:103C8000880F892F881F990B91956C0101E0C02640
:103C9000C982DA8279817170D72E0C940F0DCD0113
:103CA000880F892F881F990B9195BC0101E060272F
:103CB00061700C94DE09863910F00C949E039F709D
:103CC0009C3010F40C949E030C940308863910F079
:103CD0000C949E039F709C3010F40C949E030C94E3
:103CE00096048C01000F111F6801C20ED31EC95625
:103CF000DF4FC882D982C759D0400C94460580E076
:103D00000C942914E0933050F09331500C944414E7
:103D1000E0932E50F0932F500C944414E0933250C3
:103D2000F09333500C9444148901035F1F4BF80146
:103D300080819701235F3F4BF9019081F8019083C7
:103D4000F9018083C701880F991F865F9F4DEE247C
:103D5000E394F12CFC01E082F182F601E082F18231
:103D60009C91D3018C910C948210A701435F5F4B0F
:103D70007A01FA018081AB01435F5F4BFA019081C8
:103D8000F7019083FA018083CB01880F991F865F2A
:103D90009F4D61E070E0FC0160837183F6016083F8
:103DA00071839C91D8018C910C944A139170A096C8
:103DB0009FAFA097A1961FAEA197A1964EAD5FAD04
:103DC000A19742955295507F5427407F5427829562
:103DD0008F70FA01E82BCF0180931250909313500B
:103DE000E0913250F09133506F010F2E000CEE082D
:103DF000FF08260137010FEF401A0FE1500A610852
:103E0000710840E550E460E070E04C195D096E090E
:103E10007F09441555056605770514F4EC5EFF4AE5
:103E20004081FC01EC5EFF4A4083809132508F3F1D
:103E300009F4A8C48F5F809332502E5F3F4F2093C8
:103E400010503093115012E0810E911CA11CB11C36
:103E50008092149390921593A0921693B092179318
:103E6000E2E092E00C94B2039170A2969FAFA29709
:103E7000A3961FAEA397A396EEADFFADA397E295D1
:103E8000F295F07FFE27E07FFE2782958F70E82B6A
:103E9000EC5EFF4A40814983842F90E0809312506A
:103EA00090931350E0913250F0913350AF010F2EA8
:103EB000000C660B770B4A015B018FEF881A8FE1CC
:103EC000980AA108B10880E590E4A0E0B0E0841B66
:103ED000950BA60BB70B88159905AA05BB050CF425
:103EE000BAC199819083C0901493D0901593E090BB
:103EF0001693F090179320911050309111508091AB
:103F000032508F3F09F446C48F5F809332502E5F4A
:103F10003F4F2093105030931150BFEFCB1ADB0A64
:103F2000EB0AFB0AC0921493D0921593E092169379
:103F3000F092179320910B40922F991F9927991F68
:103F400080910C408370880F892B0C947A06811124
:103F5000C8CCCB01880F892F881F990B9195482FCA
:103F600041700C947C0A8111B9CC49815A81440F6B
:103F7000452F441F550B519541700C94570C8823C5
:103F800009F45AC4EF2EF12C80E067010C94E4117F
:103F9000880F991F6901C80ED91EC956DF4FC88204
:103FA000D982C759D0400C94A403863910F00C94E0
:103FB0009E039F709C3010F40C949E030C94BD0ED5
:103FC00080910F508C71843011F00C94A403892FD0
:103FD000837000E2809FC001112446954695469566
:103FE000842B8093125090931350813491050CF4DC
:103FF000FBC43A95880F991FAC01420F531FC95655
:10400000DF4F48835983C759D0400C94A403409193
:10401000325041116AC24FEF4093325040913350B9
:104020004150409333509170A4969FAFA497A596AA
:104030001FAEA597A5964EAD5FADA597429552953B
:10404000507F5427407F542782958F70BA01682B88
:10405000CB018093125090931350E0913250F09125
:1040600033506F010F2E000CEE08FF0826013701B8
:104070007FEF471A7FE1570A6108710840E550E475
:1040800060E070E04C195D096E097F094415550523
:104090006605770514F4EC5EFF4A4081FC01EC5E96
:1040A000FF4A40832E5F3F4F2093105030931150B2
:1040B00083E0880E911CA11CB11C809214939092F5
:1040C0001593A0921693B0921793E2E092E00C94AD
:1040D000B2039170A6969FAFA697A7961FAEA7971B
:1040E000A796EEADFFADA797E295F295F07FFE277C
:1040F000E07FFE27982F92959F70E92BEC5EFF4A98
:104100002081422F50E040931250509313509091D1
:1041100032509111D1C29FEF909332509091335011
:104120009150909333508770E0913250F09133501A
:10413000E80FF11DAF010F2E000C660B770B4A0143
:104140005B010FEF801A0FE1900AA108B10880E52A
:1041500090E4A0E0B0E0841B950BA60BB70B88158C
:104160009905AA05BB050CF49DC22083209110502F
:1041700030911150C0901493D0901593E090169305
:10418000F090179389010E5F1F4F0093105010930A
:1041900011503FEFC31AD30AE30AF30AC3CE80914A
:1041A0000E50881F8827881F50910F505370550F4D
:1041B000852B813011F00C94A4030C94610580913F
:1041C0000E508E70823011F00C94A40300CF4091F9
:1041D0000E50441F4427441F50910F505370550FE9
:1041E000452B11F00C94DE04937000E2909FA00127
:1041F0001124869586958695BA01682BCB0180930C
:10420000125090931350813491050CF437C33A95B2
:10421000880F991F280F391F72E0870E911CA11C6F
:10422000B11C8092149390921593A0921693B09221
:1042300017930C94DE0480910C408F718062809300
:104240000C402E5F3F4F2093105030931150E2E00E
:1042500092E00C94B203EC5EFF4AA981A0834FCE9A
:104260009170EA969FAFEA97EB961FAEEB97EB96AD
:10427000EEADFFADEB97E295F295F07FFE27E07F84
:10428000FE2782958F70E82BEC5EFF4A8081482FD5
:1042900050E04093125050931350E0913050F09101
:1042A00031504F010F2E000CAA08BB082401350124
:1042B0004FEF441A4FE1540A6108710840E550E499
:1042C00060E070E0481959096A097B0944155505F1
:1042D000660577050CF452C28083C0901493D09089
:1042E0001593E0901693F090179320911050309111
:1042F0001150809130508F3F09F417C58F5F809324
:1043000030502E5F3F4F20931050309311505FEF8D
:10431000C51AD50AE50AF50A28CA9170A8969FAF72
:10432000A897A9961FAEA997A9964EAD5FADA9977C
:1043300042955295507F5427407F542782958F7025
:10434000482B40931250509313506091325070910B
:104350003350CB018E7F092E000CAA0BBB0BC090F3
:104360000020D0900120E0900220F09003208C0DDE
:104370009D1DAE1DBF1D61707727E1E06E27860F82
:10438000971FA11DB11D2C013D01FFEF4F1AFFE149
:104390005F0A6108710860E5C62E60E4D62EE12C44
:1043A000F12CC81AD90AEA0AFB0AFC01C414D50484
:1043B000E604F70414F4EC5EFF4A8081FA01EC5E37
:1043C000FF4A80832E5F3F4F20931050309311504F
:1043D00003E0800E911CA11CB11C8092149390925A
:1043E0001593A0921693B0921793E2E092E00C948A
:1043F000B20380913250909133509C01220F331FB1
:104400008091002090910120820F931F8093125081
:1044100090931350809310509093115022E0820E8D
:10442000911CA11CB11C8092149390921593A092A0
:104430001693B0921793E2E092E00C94B20380914D
:104440000A40877C886080930A402E5F3F4F20930C
:10445000105030931150E2E092E00C94B20380913E
:104460000A40887F8160EFCF40910F504C7111F06E
:104470000C94DE04937010E2919FA0011124B9CE38
:1044800080910A40877CDFCF40910E504E7011F032
:104490000C94DE049370A0E29A9FA00111248695EB
:1044A00086958695FA01E82BCF0180931250909360
:1044B0001350813491050CF482C43A95880F991FEA
:1044C000280F391FF2E08F0E911CA11CB11C8092A5
:1044D000149390921593A0921693B09217930C9404
:1044E000DE0480910A40887FAECF41504093325025
:1044F0009ACD4091305041116EC24091315041509F
:10450000409331504FEF409330509170EC969FAFF5
:10451000EC97ED961FAEED97ED96EEADFFADED97F6
:10452000E295F295F07FFE27E07FFE27982F929587
:104530009F70E92BEC5EFF4A9081492F50E0409339
:104540001250509313508770E0913050F0913150D9
:10455000E80FF11D4F010F2E000CAA08BB08240123
:1045600035016FEF461A6FE1560A6108710840E5A0
:1045700050E460E070E0481959096A097B09441564
:104580005505660577050CF4C6C19083C090149359
:10459000D0901593E0901693F090179320911050BF
:1045A000309111502E5F3F4F209310503093115097
:1045B0007FEFC71AD70AE70AF70AD7C89170AA96F9
:1045C0009FAFAA97AB961FAEAB97AB964EAD5FADC4
:1045D000AB9742955295507F5427407F5427829540
:1045E0008F70482B4093125050931350609132506B
:1045F00070913350CB018E7F092E000CAA0BBB0BA0
:10460000C0900020D0900120E0900220F090032084
:104610008C0D9D1DAE1DBF1D6170772711E06127B8
:10462000860F971FA11DB11D2C013D016FEF461A8A
:104630006FE1560A6108710810E5C12E10E4D12E11
:10464000E12CF12CC81AD90AEA0AFB0AFC01C414AD
:10465000D504E604F70414F4EC5EFF4A8081FA0105
:10466000EC5EFF4A8083809132508F3F09F4ACC3E7
:104670008F5F809332502E5F3F4F209310503093C6
:10468000115073E0870E911CA11CB11C80921493F1
:1046900090921593A0921693B0921793E2E092E055
:1046A0000C94B203EC5EFF4A2083C956DF4F0881A9
:1046B0001981C759D04067CD91509093325033CD76
:1046C0009170AC969FAFAC97AD961FAEAD97AD967F
:1046D0004EAD5FADAD9742955295507F5427407FC8
:1046E000542782958F70482B40931250509313504B
:1046F0006091325070913350CB018E7F092E000CA7
:10470000AA0BBB0BC0900020D0900120E0900220AB
:10471000F09003208C0D9D1DAE1DBF1D617077278D
:10472000E1E06E27860F971FA11DB11D2C013D01F1
:10473000FFEF4F1AFFE15F0A61087108E0E5CE2E36
:10474000E0E4DE2EE12CF12CC81AD90AEA0AFB0AB1
:10475000FC01C414D504E604F70414F4EC5EFF4A2B
:104760008081FA01EC5EFF4A8083809132508F3F56
:1047700009F436C38F5F8093325024CEEC5EFF4A3B
:104780008083B7CD809133508F5F809333501092E8
:10479000325053CB809133508F5F809333501092BF
:1047A0003250B5CB9170EE969FAFEE97EF961FAE5D
:1047B000EF97EF96EEADFFADEF97E295F295F07FB4
:1047C000FE27E07FFE2782958F70E82BEC5EFF4A84
:1047D0008081E0917150F0917250EC5EFF4A8083CD
:1047E0008091715090917250092E000CAA0BBB0B56
:1047F0000197A109B10990937250809371502E5F77
:104800003F4F209310503093115082E0880E911C3E
:10481000A11CB11C8092149390921593A0921693B0
:10482000B0921793E2E092E00C94B203F12C5AC9D3
:10483000198283C9B0E044C90F2F10E0B801640F9A
:10484000751F660F672F661F770B7195862F817016
:1048500068010C94E41170E092C9198259C9880F5B
:10486000991F7901E80EF91EC956DF4FE882F982D7
:10487000C759D0400C94460560E092C9880F991F33
:10488000280F391FC9CC9170AE969FAFAE97AF96E7
:104890001FAEAF97AF964EAD5FADAF9742955295B5
:1048A000507F5427407F542782958F70BA01682B20
:1048B000CB018093125090931350E0913050F091BF
:1048C00031506F010F2E000CEE08FF082601370152
:1048D0007FEF471A7FE1570A6108710840E550E40D
:1048E00060E070E04C195D096E097F0944155505BB
:1048F0006605770514F4EC5EFF4A4081FC01EC5E2E
:10490000FF4A4083809130508F3F09F471C28F5F1E
:104910008093305074CFEC5EFF4A908343CE917009
:10492000C158DF4F9883CF57D040C058DF4F18820F
:10493000C058D040C158DF4FE881F981CF57D040EF
:10494000E295F295F07FFE27E07FFE2782958F703B
:10495000E82BEC5EFF4A8081482F50E040931250D4
:1049600050931350E0912E50F0912F504F010F2E85
:10497000000CAA08BB08240135019FEF491A9FE1EA
:10498000590A6108710840E550E460E070E0481998
:1049900059096A097B0944155505660577050CF424
:1049A000CCC18083C0901493D0901593E09016935F
:1049B000F090179320911050309111502E5F3F4F7F
:1049C0002093105030931150AFEFCA1ADA0AEA0A56
:1049D000FA0A0C94B51B41504093305096CDEC5ED2
:1049E000FF4A90830C94AA1B880F991FB901680F86
:1049F000791FC956DF4F68837983C759D0400C941B
:104A0000A4038091715090917250092E000CAA0B52
:104A1000BB0B0196A11DB11D492F50E0542F442717
:104A20009A01282B2093125030931350A901032E82
:104A3000000C660B770B4F5F5F4F6F4F7F4F852FDB
:104A400090E05093725040937150982F8827842B98
:104A5000FC01EC5EFF4A8081F901EC5EFF4A208197
:104A600090E0922B809310509093115081E090E051
:104A70008093042090930520E2E092E00C94B2032E
:104A80008091715090917250092E000CAA0BBB0BB3
:104A90000196A11DB11D492F50E0542F44279A01C2
:104AA000282B2093125030931350A901032E000C91
:104AB000660B770B4F5F5F4F6F4F7F4F852F90E0F7
:104AC0005093725040937150E0910A40E87FE1604A
:104AD000E0930A40982F8827842BFC01EC5EFF4A64
:104AE000808190E0982F8827F901EC5EFF4A2081B1
:104AF000822B8093105090931150E2E092E00C943E
:104B0000B2038091325090913350880F991F409199
:104B1000002050910120480F591F4093105050938E
:104B2000115040931250509313502E5F3F4FE0911D
:104B30007150F0917250EC5EFF4A208340917150A9
:104B400050917250052E000C660B770B41505109A5
:104B500061097109852F90E0509372504093715014
:104B6000982F8827842BFC01EC5EFF4A30838091CC
:104B7000715090917250092E000CAA0BBB0B01973B
:104B8000A109B1099093725080937150E2E092E0D4
:104B90000C94B203815080932E500C947D1B917025
:104BA000CF57DF4F9883C158D040CE57DF4F188280
:104BB000C258D040CF57DF4FE881F981C158D0406B
:104BC000E295F295F07FFE27E07FFE2782958F70B9
:104BD000E82BEC5EFF4A8081482F50E04093125052
:104BE00050931350E0912E50F0912F504F010F2E03
:104BF000000CAA08BB0824013501BFEF4B1ABFE126
:104C00005B0A6108710840E550E460E070E0481913
:104C100059096A097B0944155505660577050CF4A1
:104C2000EAC08083C0901493D0901593E0901693BF
:104C3000F0901793209110503091115080912E5088
:104C40008F3F09F4B7C18F5F80932E502E5F3F4F87
:104C50002093105030931150EFEFCE1ADE0AEE0A77
:104C6000FE0A0C94B51B409130504111B5C04FEF76
:104C700040933050409131504150409331509170A9
:104C8000E0969FAFE097E1961FAEE197E1964EADBB
:104C90005FADE19742955295507F5427407F54274E
:104CA00082958F70DA01A82BCD01809312509093DA
:104CB0001350E0913050F09131506F010F2E000CE5
:104CC000EE08FF0826013701BFEF4B1ABFE15B0A70
:104CD0006108710840E550E460E070E04C195D093E
:104CE0006E097F09441555056605770514F4EC5ED9
:104CF000FF4A4081FC01EC5EFF4A40832E5F3F4F3C
:104D00002093105030931150E3E08E0E911CA11CA3
:104D1000B11C8092149390921593A0921693B09226
:104D20001793E2E092E00C94B203809131508F5FD0
:104D30008093315010923050E4CAEC5EFF4A808379
:104D40003DCE9170E2969FAFE297E3961FAEE39758
:104D5000E3964EAD5FADE39742955295507F542751
:104D6000407F542782958F706A01C82AC6018093BC
:104D7000125090931350E0912E50F0912F506F01EC
:104D80000F2E000CEE08FF08460157010FEF801AA6
:104D90000FE1900AA108B10840E550E460E070E03E
:104DA0004C195D096E097F09481559056A057B058F
:104DB00014F4EC5EFF4A4081FC010C941706880F46
:104DC000991F280F391F7ECB809133508F5F8093BE
:104DD0003350109232504FCC4150409330504FCF0F
:104DE000809133508F5F8093335010923250EACAD3
:104DF0001092315004CDEC5EFF4A80831FCF91703A
:104E0000E6969FAFE697E7961FAEE797E7964EAD1B
:104E10005FADE79742955295507F5427407F5427C6
:104E200082958F70DA01A82BCD0180931250909358
:104E3000135040912F50E0912E50F0E03197F42B19
:104E40006F010F2E000CEE08FF0826013701BFEF9F
:104E50004B1ABFE15B0A6108710840E550E460E06D
:104E600070E04C195D096E097F094415550566050A
:104E7000770514F4EC5EFF4A4081FC01EC5EFF4ACA
:104E8000408380912E50882309F49CC081508093E8
:104E90002E5034CF9170E4969FAFE497E5961FAE05
:104EA000E597E5964EAD5FADE59742955295507FFB
:104EB0005427407F542782958F70BA01682BCB010D
:104EC0008093125090931350E0912E50F0912F50F8
:104ED0006F010F2E000CEE08FF08260137017FEF4F
:104EE000471A7FE1570A6108710840E550E460E025
:104EF00070E04C195D096E097F094415550566057A
:104F0000770514F4EC5EFF4A4081FC01EC5EFF4A39
:104F1000408380912E508F3F51F08F5F80932E50B1
:104F20006ECC80E00C94831870E00C94671880912C
:104F30002F508F5F80932F5010922E5060CC608145
:104F4000DC01A35FBF4BA983BA837C9170836C9310
:104F5000880F991FDC01A65FBF4D81E090E08D9323
:104F60009C93DA018D939C930C94F61490E00C942E
:104F70008E174081BC01635F7F4B69837A83DB01BD
:104F80005C9150834C93880F991FDC01A65FBF4D45
:104F900081E090E08D939C93D9018D939C930C9428
:104FA0005B1580E00C94041850E00C94E81780E046
:104FB0000C946A1780912F508F5F80932F5010921E
:104FC0002E5044CE80912F50815080932F508FEFE0
:104FD00080932E5093CE109204201092052006C08C
:104FE0008091042090910520892B31F40E94C70202
:104FF000672B682B692BA1F70895109214931092D8
:1050000015931092169310921793109206201092F7
:105010000720109208201092092081E080932450EC
:1050200082E08093255083E08093265084E0809333
:10503000275085E08093285086E08093295087E0B0
:1050400080932A5088E080932B5089E080932C50E5
:105050008AE080932D508BE080932E508CE08093DB
:105060002F501092305080E4809331509FE0909305
:10507000325090E19093335080937250109271505F
:1050800020E034E044E555E561E070E08DE090E437
:105090000E94A3020E94AD020E94EB27FFCFEE0FF9
:1050A000FF1F881F8BBF0790F691E02D199481E0B8
:0C50B00090E0F8940C945C28F894FFCF7A
:00000001FF
